{
  "_format": "hh-sol-artifact-1",
  "contractName": "CPTree",
  "sourceName": "contracts/CPTree.sol",
  "abi": [
    {
      "inputs": [
        {
          "internalType": "address",
          "name": "chargedParticlesAddress",
          "type": "address"
        }
      ],
      "stateMutability": "nonpayable",
      "type": "constructor"
    },
    {
      "anonymous": false,
      "inputs": [
        {
          "indexed": true,
          "internalType": "address",
          "name": "owner",
          "type": "address"
        },
        {
          "indexed": true,
          "internalType": "address",
          "name": "approved",
          "type": "address"
        },
        {
          "indexed": true,
          "internalType": "uint256",
          "name": "tokenId",
          "type": "uint256"
        }
      ],
      "name": "Approval",
      "type": "event"
    },
    {
      "anonymous": false,
      "inputs": [
        {
          "indexed": true,
          "internalType": "address",
          "name": "owner",
          "type": "address"
        },
        {
          "indexed": true,
          "internalType": "address",
          "name": "operator",
          "type": "address"
        },
        {
          "indexed": false,
          "internalType": "bool",
          "name": "approved",
          "type": "bool"
        }
      ],
      "name": "ApprovalForAll",
      "type": "event"
    },
    {
      "anonymous": false,
      "inputs": [
        {
          "indexed": false,
          "internalType": "uint256",
          "name": "tokenId",
          "type": "uint256"
        }
      ],
      "name": "Graft",
      "type": "event"
    },
    {
      "anonymous": false,
      "inputs": [
        {
          "indexed": false,
          "internalType": "uint256",
          "name": "tokenId",
          "type": "uint256"
        }
      ],
      "name": "Grow",
      "type": "event"
    },
    {
      "anonymous": false,
      "inputs": [
        {
          "indexed": false,
          "internalType": "uint256",
          "name": "tokenId",
          "type": "uint256"
        }
      ],
      "name": "Plant",
      "type": "event"
    },
    {
      "anonymous": false,
      "inputs": [
        {
          "indexed": false,
          "internalType": "uint256",
          "name": "tokenId",
          "type": "uint256"
        }
      ],
      "name": "Trade",
      "type": "event"
    },
    {
      "anonymous": false,
      "inputs": [
        {
          "indexed": true,
          "internalType": "address",
          "name": "from",
          "type": "address"
        },
        {
          "indexed": true,
          "internalType": "address",
          "name": "to",
          "type": "address"
        },
        {
          "indexed": true,
          "internalType": "uint256",
          "name": "tokenId",
          "type": "uint256"
        }
      ],
      "name": "Transfer",
      "type": "event"
    },
    {
      "anonymous": false,
      "inputs": [
        {
          "indexed": false,
          "internalType": "uint256",
          "name": "tokenId",
          "type": "uint256"
        }
      ],
      "name": "Use",
      "type": "event"
    },
    {
      "inputs": [
        {
          "internalType": "uint256",
          "name": "",
          "type": "uint256"
        }
      ],
      "name": "_trees",
      "outputs": [
        {
          "internalType": "string",
          "name": "walletManagerId",
          "type": "string"
        },
        {
          "internalType": "address",
          "name": "assetToken",
          "type": "address"
        },
        {
          "internalType": "uint256",
          "name": "assetAmount",
          "type": "uint256"
        },
        {
          "internalType": "bool",
          "name": "isUsed",
          "type": "bool"
        },
        {
          "internalType": "uint256",
          "name": "rings",
          "type": "uint256"
        }
      ],
      "stateMutability": "view",
      "type": "function"
    },
    {
      "inputs": [
        {
          "internalType": "address",
          "name": "to",
          "type": "address"
        },
        {
          "internalType": "uint256",
          "name": "tokenId",
          "type": "uint256"
        }
      ],
      "name": "approve",
      "outputs": [],
      "stateMutability": "nonpayable",
      "type": "function"
    },
    {
      "inputs": [
        {
          "internalType": "address",
          "name": "owner",
          "type": "address"
        }
      ],
      "name": "balanceOf",
      "outputs": [
        {
          "internalType": "uint256",
          "name": "",
          "type": "uint256"
        }
      ],
      "stateMutability": "view",
      "type": "function"
    },
    {
      "inputs": [],
      "name": "baseURI",
      "outputs": [
        {
          "internalType": "string",
          "name": "",
          "type": "string"
        }
      ],
      "stateMutability": "view",
      "type": "function"
    },
    {
      "inputs": [
        {
          "internalType": "uint256",
          "name": "tokenId",
          "type": "uint256"
        }
      ],
      "name": "getApproved",
      "outputs": [
        {
          "internalType": "address",
          "name": "",
          "type": "address"
        }
      ],
      "stateMutability": "view",
      "type": "function"
    },
    {
      "inputs": [
        {
          "internalType": "string",
          "name": "walletManagerId",
          "type": "string"
        },
        {
          "internalType": "address",
          "name": "assetToken",
          "type": "address"
        },
        {
          "internalType": "uint256",
          "name": "nftTokenId",
          "type": "uint256"
        }
      ],
      "name": "graft",
      "outputs": [],
      "stateMutability": "nonpayable",
      "type": "function"
    },
    {
      "inputs": [],
      "name": "grow",
      "outputs": [],
      "stateMutability": "nonpayable",
      "type": "function"
    },
    {
      "inputs": [
        {
          "internalType": "address",
          "name": "owner",
          "type": "address"
        },
        {
          "internalType": "address",
          "name": "operator",
          "type": "address"
        }
      ],
      "name": "isApprovedForAll",
      "outputs": [
        {
          "internalType": "bool",
          "name": "",
          "type": "bool"
        }
      ],
      "stateMutability": "view",
      "type": "function"
    },
    {
      "inputs": [],
      "name": "name",
      "outputs": [
        {
          "internalType": "string",
          "name": "",
          "type": "string"
        }
      ],
      "stateMutability": "view",
      "type": "function"
    },
    {
      "inputs": [
        {
          "internalType": "uint256",
          "name": "tokenId",
          "type": "uint256"
        }
      ],
      "name": "ownerOf",
      "outputs": [
        {
          "internalType": "address",
          "name": "",
          "type": "address"
        }
      ],
      "stateMutability": "view",
      "type": "function"
    },
    {
      "inputs": [
        {
          "internalType": "string",
          "name": "walletManagerId",
          "type": "string"
        },
        {
          "internalType": "address",
          "name": "assetToken",
          "type": "address"
        },
        {
          "internalType": "uint256",
          "name": "assetAmount",
          "type": "uint256"
        },
        {
          "internalType": "string",
          "name": "tokenMediaURI",
          "type": "string"
        }
      ],
      "name": "plant",
      "outputs": [],
      "stateMutability": "nonpayable",
      "type": "function"
    },
    {
      "inputs": [
        {
          "internalType": "string",
          "name": "walletManagerId",
          "type": "string"
        },
        {
          "internalType": "address",
          "name": "assetToken",
          "type": "address"
        },
        {
          "internalType": "uint256",
          "name": "nftTokenId",
          "type": "uint256"
        },
        {
          "internalType": "string",
          "name": "tokenMediaURI",
          "type": "string"
        }
      ],
      "name": "plantSeed",
      "outputs": [],
      "stateMutability": "nonpayable",
      "type": "function"
    },
    {
      "inputs": [
        {
          "internalType": "address",
          "name": "from",
          "type": "address"
        },
        {
          "internalType": "address",
          "name": "to",
          "type": "address"
        },
        {
          "internalType": "uint256",
          "name": "tokenId",
          "type": "uint256"
        }
      ],
      "name": "safeTransferFrom",
      "outputs": [],
      "stateMutability": "nonpayable",
      "type": "function"
    },
    {
      "inputs": [
        {
          "internalType": "address",
          "name": "from",
          "type": "address"
        },
        {
          "internalType": "address",
          "name": "to",
          "type": "address"
        },
        {
          "internalType": "uint256",
          "name": "tokenId",
          "type": "uint256"
        },
        {
          "internalType": "bytes",
          "name": "_data",
          "type": "bytes"
        }
      ],
      "name": "safeTransferFrom",
      "outputs": [],
      "stateMutability": "nonpayable",
      "type": "function"
    },
    {
      "inputs": [
        {
          "internalType": "address",
          "name": "operator",
          "type": "address"
        },
        {
          "internalType": "bool",
          "name": "approved",
          "type": "bool"
        }
      ],
      "name": "setApprovalForAll",
      "outputs": [],
      "stateMutability": "nonpayable",
      "type": "function"
    },
    {
      "inputs": [
        {
          "internalType": "bytes4",
          "name": "interfaceId",
          "type": "bytes4"
        }
      ],
      "name": "supportsInterface",
      "outputs": [
        {
          "internalType": "bool",
          "name": "",
          "type": "bool"
        }
      ],
      "stateMutability": "view",
      "type": "function"
    },
    {
      "inputs": [],
      "name": "symbol",
      "outputs": [
        {
          "internalType": "string",
          "name": "",
          "type": "string"
        }
      ],
      "stateMutability": "view",
      "type": "function"
    },
    {
      "inputs": [
        {
          "internalType": "uint256",
          "name": "index",
          "type": "uint256"
        }
      ],
      "name": "tokenByIndex",
      "outputs": [
        {
          "internalType": "uint256",
          "name": "",
          "type": "uint256"
        }
      ],
      "stateMutability": "view",
      "type": "function"
    },
    {
      "inputs": [
        {
          "internalType": "address",
          "name": "owner",
          "type": "address"
        },
        {
          "internalType": "uint256",
          "name": "index",
          "type": "uint256"
        }
      ],
      "name": "tokenOfOwnerByIndex",
      "outputs": [
        {
          "internalType": "uint256",
          "name": "",
          "type": "uint256"
        }
      ],
      "stateMutability": "view",
      "type": "function"
    },
    {
      "inputs": [
        {
          "internalType": "uint256",
          "name": "tokenId",
          "type": "uint256"
        }
      ],
      "name": "tokenURI",
      "outputs": [
        {
          "internalType": "string",
          "name": "",
          "type": "string"
        }
      ],
      "stateMutability": "view",
      "type": "function"
    },
    {
      "inputs": [],
      "name": "totalSupply",
      "outputs": [
        {
          "internalType": "uint256",
          "name": "",
          "type": "uint256"
        }
      ],
      "stateMutability": "view",
      "type": "function"
    },
    {
      "inputs": [],
      "name": "trade",
      "outputs": [],
      "stateMutability": "nonpayable",
      "type": "function"
    },
    {
      "inputs": [
        {
          "internalType": "address",
          "name": "from",
          "type": "address"
        },
        {
          "internalType": "address",
          "name": "to",
          "type": "address"
        },
        {
          "internalType": "uint256",
          "name": "tokenId",
          "type": "uint256"
        }
      ],
      "name": "transferFrom",
      "outputs": [],
      "stateMutability": "nonpayable",
      "type": "function"
    },
    {
      "inputs": [],
      "name": "use",
      "outputs": [],
      "stateMutability": "nonpayable",
      "type": "function"
    }
  ],
  "bytecode": "0x60806040523480156200001157600080fd5b5060405162003dce38038062003dce833981810160405260208110156200003757600080fd5b81019080805190602001909291905050506040518060400160405280600681526020017f43505472656500000000000000000000000000000000000000000000000000008152506040518060400160405280600681526020017f4350545245450000000000000000000000000000000000000000000000000000815250620000cc6301ffc9a760e01b6200019060201b60201c565b8160069080519060200190620000e492919062000299565b508060079080519060200190620000fd92919062000299565b50620001166380ac58cd60e01b6200019060201b60201c565b6200012e635b5e139f60e01b6200019060201b60201c565b6200014663780e9d6360e01b6200019060201b60201c565b505080600b60006101000a81548173ffffffffffffffffffffffffffffffffffffffff021916908373ffffffffffffffffffffffffffffffffffffffff160217905550506200034f565b63ffffffff60e01b817bffffffffffffffffffffffffffffffffffffffffffffffffffffffff191614156200022d576040517f08c379a000000000000000000000000000000000000000000000000000000000815260040180806020018281038252601c8152602001807f4552433136353a20696e76616c696420696e746572666163652069640000000081525060200191505060405180910390fd5b6001600080837bffffffffffffffffffffffffffffffffffffffffffffffffffffffff19167bffffffffffffffffffffffffffffffffffffffffffffffffffffffff1916815260200190815260200160002060006101000a81548160ff02191690831515021790555050565b828054600181600116156101000203166002900490600052602060002090601f016020900481019282620002d157600085556200031d565b82601f10620002ec57805160ff19168380011785556200031d565b828001600101855582156200031d579182015b828111156200031c578251825591602001919060010190620002ff565b5b5090506200032c919062000330565b5090565b5b808211156200034b57600081600090555060010162000331565b5090565b613a6f806200035f6000396000f3fe608060405234801561001057600080fd5b50600436106101585760003560e01c80634f6ccce7116100c357806395d89b411161007c57806395d89b4114610890578063a22cb46514610913578063b88d4fde14610963578063c87b56dd14610a68578063e985e9c514610b0f578063fccdad6414610b8957610158565b80634f6ccce71461066e5780635298948e146106b05780635782bd71146106ba5780636352211e1461075d5780636c0360eb146107b557806370a082311461083857610158565b806323b872dd1161011557806323b872dd14610311578063264937941461037f5780632f745c59146104b95780633471fa161461051b57806342842e0e146105f65780634c97d71a1461066457610158565b806301ffc9a71461015d57806306fdde03146101c0578063081812fc14610243578063095ea7b31461029b57806318160ddd146102e95780631f0ba6c914610307575b600080fd5b6101a86004803603602081101561017357600080fd5b8101908080357bffffffffffffffffffffffffffffffffffffffffffffffffffffffff19169060200190929190505050610cc3565b60405180821515815260200191505060405180910390f35b6101c8610d2a565b6040518080602001828103825283818151815260200191508051906020019080838360005b838110156102085780820151818401526020810190506101ed565b50505050905090810190601f1680156102355780820380516001836020036101000a031916815260200191505b509250505060405180910390f35b61026f6004803603602081101561025957600080fd5b8101908080359060200190929190505050610dcc565b604051808273ffffffffffffffffffffffffffffffffffffffff16815260200191505060405180910390f35b6102e7600480360360408110156102b157600080fd5b81019080803573ffffffffffffffffffffffffffffffffffffffff16906020019092919080359060200190929190505050610e67565b005b6102f1610fab565b6040518082815260200191505060405180910390f35b61030f610fbc565b005b61037d6004803603606081101561032757600080fd5b81019080803573ffffffffffffffffffffffffffffffffffffffff169060200190929190803573ffffffffffffffffffffffffffffffffffffffff16906020019092919080359060200190929190505050611004565b005b6104b76004803603608081101561039557600080fd5b81019080803590602001906401000000008111156103b257600080fd5b8201836020820111156103c457600080fd5b803590602001918460018302840111640100000000831117156103e657600080fd5b9091929391929390803573ffffffffffffffffffffffffffffffffffffffff169060200190929190803590602001909291908035906020019064010000000081111561043157600080fd5b82018360208201111561044357600080fd5b8035906020019184600183028401116401000000008311171561046557600080fd5b91908080601f016020809104026020016040519081016040528093929190818152602001838380828437600081840152601f19601f82011690508083019250505050505050919291929050505061107a565b005b610505600480360360408110156104cf57600080fd5b81019080803573ffffffffffffffffffffffffffffffffffffffff16906020019092919080359060200190929190505050611336565b6040518082815260200191505060405180910390f35b6105476004803603602081101561053157600080fd5b8101908080359060200190929190505050611391565b60405180806020018673ffffffffffffffffffffffffffffffffffffffff1681526020018581526020018415158152602001838152602001828103825287818151815260200191508051906020019080838360005b838110156105b757808201518184015260208101905061059c565b50505050905090810190601f1680156105e45780820380516001836020036101000a031916815260200191505b50965050505050505060405180910390f35b6106626004803603606081101561060c57600080fd5b81019080803573ffffffffffffffffffffffffffffffffffffffff169060200190929190803573ffffffffffffffffffffffffffffffffffffffff1690602001909291908035906020019092919050505061148c565b005b61066c6114ac565b005b61069a6004803603602081101561068457600080fd5b81019080803590602001909291905050506114f4565b6040518082815260200191505060405180910390f35b6106b8611517565b005b61075b600480360360608110156106d057600080fd5b81019080803590602001906401000000008111156106ed57600080fd5b8201836020820111156106ff57600080fd5b8035906020019184600183028401116401000000008311171561072157600080fd5b9091929391929390803573ffffffffffffffffffffffffffffffffffffffff1690602001909291908035906020019092919050505061155f565b005b6107896004803603602081101561077357600080fd5b810190808035906020019092919050505061177f565b604051808273ffffffffffffffffffffffffffffffffffffffff16815260200191505060405180910390f35b6107bd6117b6565b6040518080602001828103825283818151815260200191508051906020019080838360005b838110156107fd5780820151818401526020810190506107e2565b50505050905090810190601f16801561082a5780820380516001836020036101000a031916815260200191505b509250505060405180910390f35b61087a6004803603602081101561084e57600080fd5b81019080803573ffffffffffffffffffffffffffffffffffffffff169060200190929190505050611858565b6040518082815260200191505060405180910390f35b61089861192d565b6040518080602001828103825283818151815260200191508051906020019080838360005b838110156108d85780820151818401526020810190506108bd565b50505050905090810190601f1680156109055780820380516001836020036101000a031916815260200191505b509250505060405180910390f35b6109616004803603604081101561092957600080fd5b81019080803573ffffffffffffffffffffffffffffffffffffffff1690602001909291908035151590602001909291905050506119cf565b005b610a666004803603608081101561097957600080fd5b81019080803573ffffffffffffffffffffffffffffffffffffffff169060200190929190803573ffffffffffffffffffffffffffffffffffffffff16906020019092919080359060200190929190803590602001906401000000008111156109e057600080fd5b8201836020820111156109f257600080fd5b80359060200191846001830284011164010000000083111715610a1457600080fd5b91908080601f016020809104026020016040519081016040528093929190818152602001838380828437600081840152601f19601f820116905080830192505050505050509192919290505050611b85565b005b610a9460048036036020811015610a7e57600080fd5b8101908080359060200190929190505050611bfd565b6040518080602001828103825283818151815260200191508051906020019080838360005b83811015610ad4578082015181840152602081019050610ab9565b50505050905090810190601f168015610b015780820380516001836020036101000a031916815260200191505b509250505060405180910390f35b610b7160048036036040811015610b2557600080fd5b81019080803573ffffffffffffffffffffffffffffffffffffffff169060200190929190803573ffffffffffffffffffffffffffffffffffffffff169060200190929190505050611ece565b60405180821515815260200191505060405180910390f35b610cc160048036036080811015610b9f57600080fd5b8101908080359060200190640100000000811115610bbc57600080fd5b820183602082011115610bce57600080fd5b80359060200191846001830284011164010000000083111715610bf057600080fd5b9091929391929390803573ffffffffffffffffffffffffffffffffffffffff1690602001909291908035906020019092919080359060200190640100000000811115610c3b57600080fd5b820183602082011115610c4d57600080fd5b80359060200191846001830284011164010000000083111715610c6f57600080fd5b91908080601f016020809104026020016040519081016040528093929190818152602001838380828437600081840152601f19601f820116905080830192505050505050509192919290505050611f62565b005b6000806000837bffffffffffffffffffffffffffffffffffffffffffffffffffffffff19167bffffffffffffffffffffffffffffffffffffffffffffffffffffffff1916815260200190815260200160002060009054906101000a900460ff169050919050565b606060068054600181600116156101000203166002900480601f016020809104026020016040519081016040528092919081815260200182805460018160011615610100020316600290048015610dc25780601f10610d9757610100808354040283529160200191610dc2565b820191906000526020600020905b815481529060010190602001808311610da557829003601f168201915b5050505050905090565b6000610dd782612377565b610e2c576040517f08c379a000000000000000000000000000000000000000000000000000000000815260040180806020018281038252602c815260200180613964602c913960400191505060405180910390fd5b6004600083815260200190815260200160002060009054906101000a900473ffffffffffffffffffffffffffffffffffffffff169050919050565b6000610e728261177f565b90508073ffffffffffffffffffffffffffffffffffffffff168373ffffffffffffffffffffffffffffffffffffffff161415610ef9576040517f08c379a00000000000000000000000000000000000000000000000000000000081526004018080602001828103825260218152602001806139e86021913960400191505060405180910390fd5b8073ffffffffffffffffffffffffffffffffffffffff16610f18612394565b73ffffffffffffffffffffffffffffffffffffffff161480610f475750610f4681610f41612394565b611ece565b5b610f9c576040517f08c379a00000000000000000000000000000000000000000000000000000000081526004018080602001828103825260388152602001806138b76038913960400191505060405180910390fd5b610fa6838361239c565b505050565b6000610fb76002612455565b905090565b6000610fc8600a61246a565b90507f92eac21ca04d36a8cc3a98b3569867f81c2fd1c45d9a3383ba1973d388737e74816040518082815260200191505060405180910390a150565b61101561100f612394565b82612478565b61106a576040517f08c379a0000000000000000000000000000000000000000000000000000000008152600401808060200182810382526031815260200180613a096031913960400191505060405180910390fd5b61107583838361256c565b505050565b6000611084612394565b9050611090600a6127af565b600061109c600a61246a565b90506110a6613669565b87878080601f016020809104026020016040519081016040528093929190818152602001838380828437600081840152601f19601f82011690508083019250505050505050816000018190525085816020019073ffffffffffffffffffffffffffffffffffffffff16908173ffffffffffffffffffffffffffffffffffffffff168152505084816040018181525050600081606001901515908115158152505060018160800181815250507f9040f56b937c8dcd160b38c2ded0d72403953868ce74062d526adb009e51bbb6826040518082815260200191505060405180910390a1600b60009054906101000a900473ffffffffffffffffffffffffffffffffffffffff1673ffffffffffffffffffffffffffffffffffffffff16630bdde2ca30848b8b8b8b60006040518863ffffffff1660e01b8152600401808873ffffffffffffffffffffffffffffffffffffffff168152602001878152602001806020018573ffffffffffffffffffffffffffffffffffffffff1681526020018481526020018373ffffffffffffffffffffffffffffffffffffffff1681526020018281038252878782818152602001925080828437600081840152601f19601f82011690508083019250505098505050505050505050602060405180830381600087803b15801561129457600080fd5b505af11580156112a8573d6000803e3d6000fd5b505050506040513d60208110156112be57600080fd5b81019080805190602001909291905050505061132182600d60008673ffffffffffffffffffffffffffffffffffffffff1673ffffffffffffffffffffffffffffffffffffffff1681526020019081526020016000206127c590919063ffffffff16565b5061132c83836127df565b5050505050505050565b600061138982600160008673ffffffffffffffffffffffffffffffffffffffff1673ffffffffffffffffffffffffffffffffffffffff1681526020019081526020016000206127fd90919063ffffffff16565b905092915050565b600c602052806000526040600020600091509050806000018054600181600116156101000203166002900480601f01602080910402602001604051908101604052809291908181526020018280546001816001161561010002031660029004801561143d5780601f106114125761010080835404028352916020019161143d565b820191906000526020600020905b81548152906001019060200180831161142057829003601f168201915b5050505050908060010160009054906101000a900473ffffffffffffffffffffffffffffffffffffffff16908060020154908060030160009054906101000a900460ff16908060040154905085565b6114a783838360405180602001604052806000815250611b85565b505050565b60006114b8600a61246a565b90507f92eac21ca04d36a8cc3a98b3569867f81c2fd1c45d9a3383ba1973d388737e74816040518082815260200191505060405180910390a150565b60008061150b83600261281790919063ffffffff16565b50905080915050919050565b6000611523600a61246a565b90507f5320e1c1f18c0ac58c8575ef61f854291a349e336f66182881815dcb8d972563816040518082815260200191505060405180910390a150565b600061156b600a61246a565b90508273ffffffffffffffffffffffffffffffffffffffff1663095ea7b3600b60009054906101000a900473ffffffffffffffffffffffffffffffffffffffff16846040518363ffffffff1660e01b8152600401808373ffffffffffffffffffffffffffffffffffffffff16815260200182815260200192505050600060405180830381600087803b15801561160057600080fd5b505af1158015611614573d6000803e3d6000fd5b50505050600b60009054906101000a900473ffffffffffffffffffffffffffffffffffffffff1673ffffffffffffffffffffffffffffffffffffffff1663a922431e3083888888886040518763ffffffff1660e01b8152600401808773ffffffffffffffffffffffffffffffffffffffff168152602001868152602001806020018473ffffffffffffffffffffffffffffffffffffffff1681526020018381526020018281038252868682818152602001925080828437600081840152601f19601f820116905080830192505050975050505050505050602060405180830381600087803b15801561170557600080fd5b505af1158015611719573d6000803e3d6000fd5b505050506040513d602081101561172f57600080fd5b8101908080519060200190929190505050507fd0030f5d19de125aefef33955022ece4172db3a681d61dc86d8ee05782a65ec2816040518082815260200191505060405180910390a15050505050565b60006117af826040518060600160405280602981526020016139196029913960026128439092919063ffffffff16565b9050919050565b606060098054600181600116156101000203166002900480601f01602080910402602001604051908101604052809291908181526020018280546001816001161561010002031660029004801561184e5780601f106118235761010080835404028352916020019161184e565b820191906000526020600020905b81548152906001019060200180831161183157829003601f168201915b5050505050905090565b60008073ffffffffffffffffffffffffffffffffffffffff168273ffffffffffffffffffffffffffffffffffffffff1614156118df576040517f08c379a000000000000000000000000000000000000000000000000000000000815260040180806020018281038252602a8152602001806138ef602a913960400191505060405180910390fd5b611926600160008473ffffffffffffffffffffffffffffffffffffffff1673ffffffffffffffffffffffffffffffffffffffff168152602001908152602001600020612862565b9050919050565b606060078054600181600116156101000203166002900480601f0160208091040260200160405190810160405280929190818152602001828054600181600116156101000203166002900480156119c55780601f1061199a576101008083540402835291602001916119c5565b820191906000526020600020905b8154815290600101906020018083116119a857829003601f168201915b5050505050905090565b6119d7612394565b73ffffffffffffffffffffffffffffffffffffffff168273ffffffffffffffffffffffffffffffffffffffff161415611a78576040517f08c379a00000000000000000000000000000000000000000000000000000000081526004018080602001828103825260198152602001807f4552433732313a20617070726f766520746f2063616c6c65720000000000000081525060200191505060405180910390fd5b8060056000611a85612394565b73ffffffffffffffffffffffffffffffffffffffff1673ffffffffffffffffffffffffffffffffffffffff16815260200190815260200160002060008473ffffffffffffffffffffffffffffffffffffffff1673ffffffffffffffffffffffffffffffffffffffff16815260200190815260200160002060006101000a81548160ff0219169083151502179055508173ffffffffffffffffffffffffffffffffffffffff16611b32612394565b73ffffffffffffffffffffffffffffffffffffffff167f17307eab39ab6107e8899845ad3d59bd9653f200f220920489ca2b5937696c318360405180821515815260200191505060405180910390a35050565b611b96611b90612394565b83612478565b611beb576040517f08c379a0000000000000000000000000000000000000000000000000000000008152600401808060200182810382526031815260200180613a096031913960400191505060405180910390fd5b611bf784848484612877565b50505050565b6060611c0882612377565b611c5d576040517f08c379a000000000000000000000000000000000000000000000000000000000815260040180806020018281038252602f8152602001806139b9602f913960400191505060405180910390fd5b6000600860008481526020019081526020016000208054600181600116156101000203166002900480601f016020809104026020016040519081016040528092919081815260200182805460018160011615610100020316600290048015611d065780601f10611cdb57610100808354040283529160200191611d06565b820191906000526020600020905b815481529060010190602001808311611ce957829003601f168201915b505050505090506000611d176117b6565b9050600081511415611d2d578192505050611ec9565b600082511115611dfe5780826040516020018083805190602001908083835b60208310611d6f5780518252602082019150602081019050602083039250611d4c565b6001836020036101000a03801982511681845116808217855250505050505090500182805190602001908083835b60208310611dc05780518252602082019150602081019050602083039250611d9d565b6001836020036101000a0380198251168184511680821785525050505050509050019250505060405160208183030381529060405292505050611ec9565b80611e08856128e9565b6040516020018083805190602001908083835b60208310611e3e5780518252602082019150602081019050602083039250611e1b565b6001836020036101000a03801982511681845116808217855250505050505090500182805190602001908083835b60208310611e8f5780518252602082019150602081019050602083039250611e6c565b6001836020036101000a03801982511681845116808217855250505050505090500192505050604051602081830303815290604052925050505b919050565b6000600560008473ffffffffffffffffffffffffffffffffffffffff1673ffffffffffffffffffffffffffffffffffffffff16815260200190815260200160002060008373ffffffffffffffffffffffffffffffffffffffff1673ffffffffffffffffffffffffffffffffffffffff16815260200190815260200160002060009054906101000a900460ff16905092915050565b6000611f6c612394565b9050611f78600a6127af565b611f80613669565b86868080601f016020809104026020016040519081016040528093929190818152602001838380828437600081840152601f19601f82011690508083019250505050505050816000018190525084816020019073ffffffffffffffffffffffffffffffffffffffff16908173ffffffffffffffffffffffffffffffffffffffff16815250506000816040018181525050600081606001901515908115158152505060018160800181815250506000612038600a61246a565b905081600c6000838152602001908152602001600020600082015181600001908051906020019061206a9291906136b7565b5060208201518160010160006101000a81548173ffffffffffffffffffffffffffffffffffffffff021916908373ffffffffffffffffffffffffffffffffffffffff1602179055506040820151816002015560608201518160030160006101000a81548160ff0219169083151502179055506080820151816004015560a0820151816005019080519060200190612102929190613745565b509050507f9040f56b937c8dcd160b38c2ded0d72403953868ce74062d526adb009e51bbb6816040518082815260200191505060405180910390a18573ffffffffffffffffffffffffffffffffffffffff1663095ea7b3600b60009054906101000a900473ffffffffffffffffffffffffffffffffffffffff16876040518363ffffffff1660e01b8152600401808373ffffffffffffffffffffffffffffffffffffffff16815260200182815260200192505050600060405180830381600087803b1580156121d057600080fd5b505af11580156121e4573d6000803e3d6000fd5b50505050600b60009054906101000a900473ffffffffffffffffffffffffffffffffffffffff1673ffffffffffffffffffffffffffffffffffffffff1663a922431e30838b8b8b8b6040518763ffffffff1660e01b8152600401808773ffffffffffffffffffffffffffffffffffffffff168152602001868152602001806020018473ffffffffffffffffffffffffffffffffffffffff1681526020018381526020018281038252868682818152602001925080828437600081840152601f19601f820116905080830192505050975050505050505050602060405180830381600087803b1580156122d557600080fd5b505af11580156122e9573d6000803e3d6000fd5b505050506040513d60208110156122ff57600080fd5b81019080805190602001909291905050505061236281600d60008673ffffffffffffffffffffffffffffffffffffffff1673ffffffffffffffffffffffffffffffffffffffff1681526020019081526020016000206127c590919063ffffffff16565b5061236d83826127df565b5050505050505050565b600061238d826002612a3090919063ffffffff16565b9050919050565b600033905090565b816004600083815260200190815260200160002060006101000a81548173ffffffffffffffffffffffffffffffffffffffff021916908373ffffffffffffffffffffffffffffffffffffffff160217905550808273ffffffffffffffffffffffffffffffffffffffff1661240f8361177f565b73ffffffffffffffffffffffffffffffffffffffff167f8c5be1e5ebec7d5bd14f71427d1e84f3dd0314c0f7b2291e5b200ac8c7c3b92560405160405180910390a45050565b600061246382600001612a4a565b9050919050565b600081600001549050919050565b600061248382612377565b6124d8576040517f08c379a000000000000000000000000000000000000000000000000000000000815260040180806020018281038252602c81526020018061388b602c913960400191505060405180910390fd5b60006124e38361177f565b90508073ffffffffffffffffffffffffffffffffffffffff168473ffffffffffffffffffffffffffffffffffffffff16148061255257508373ffffffffffffffffffffffffffffffffffffffff1661253a84610dcc565b73ffffffffffffffffffffffffffffffffffffffff16145b8061256357506125628185611ece565b5b91505092915050565b8273ffffffffffffffffffffffffffffffffffffffff1661258c8261177f565b73ffffffffffffffffffffffffffffffffffffffff16146125f8576040517f08c379a00000000000000000000000000000000000000000000000000000000081526004018080602001828103825260298152602001806139906029913960400191505060405180910390fd5b600073ffffffffffffffffffffffffffffffffffffffff168273ffffffffffffffffffffffffffffffffffffffff16141561267e576040517f08c379a00000000000000000000000000000000000000000000000000000000081526004018080602001828103825260248152602001806138416024913960400191505060405180910390fd5b612689838383612a5b565b61269460008261239c565b6126e581600160008673ffffffffffffffffffffffffffffffffffffffff1673ffffffffffffffffffffffffffffffffffffffff168152602001908152602001600020612a6090919063ffffffff16565b5061273781600160008573ffffffffffffffffffffffffffffffffffffffff1673ffffffffffffffffffffffffffffffffffffffff1681526020019081526020016000206127c590919063ffffffff16565b5061274e81836002612a7a9092919063ffffffff16565b50808273ffffffffffffffffffffffffffffffffffffffff168473ffffffffffffffffffffffffffffffffffffffff167fddf252ad1be2c89b69c2b068fc378daa952ba7f163c4a11628f55a4df523b3ef60405160405180910390a4505050565b6001816000016000828254019250508190555050565b60006127d7836000018360001b612aaf565b905092915050565b6127f9828260405180602001604052806000815250612b1f565b5050565b600061280c8360000183612b90565b60001c905092915050565b60008060008061282a8660000186612c13565b915091508160001c8160001c9350935050509250929050565b6000612856846000018460001b84612cac565b60001c90509392505050565b600061287082600001612da2565b9050919050565b61288284848461256c565b61288e84848484612db3565b6128e3576040517f08c379a000000000000000000000000000000000000000000000000000000000815260040180806020018281038252603281526020018061380f6032913960400191505060405180910390fd5b50505050565b60606000821415612931576040518060400160405280600181526020017f30000000000000000000000000000000000000000000000000000000000000008152509050612a2b565b600082905060005b6000821461295b578080600101915050600a828161295357fe5b049150612939565b60008167ffffffffffffffff8111801561297457600080fd5b506040519080825280601f01601f1916602001820160405280156129a75781602001600182028036833780820191505090505b50905060006001830390508593505b60008414612a2357600a84816129c857fe5b0660300160f81b828280600190039350815181106129e257fe5b60200101907effffffffffffffffffffffffffffffffffffffffffffffffffffffffffffff1916908160001a905350600a8481612a1b57fe5b0493506129b6565b819450505050505b919050565b6000612a42836000018360001b612fcc565b905092915050565b600081600001805490509050919050565b505050565b6000612a72836000018360001b612fef565b905092915050565b6000612aa6846000018460001b8473ffffffffffffffffffffffffffffffffffffffff1660001b6130d7565b90509392505050565b6000612abb83836131b3565b612b14578260000182908060018154018082558091505060019003906000526020600020016000909190919091505582600001805490508360010160008481526020019081526020016000208190555060019050612b19565b600090505b92915050565b612b2983836131d6565b612b366000848484612db3565b612b8b576040517f08c379a000000000000000000000000000000000000000000000000000000000815260040180806020018281038252603281526020018061380f6032913960400191505060405180910390fd5b505050565b600081836000018054905011612bf1576040517f08c379a00000000000000000000000000000000000000000000000000000000081526004018080602001828103825260228152602001806137ed6022913960400191505060405180910390fd5b826000018281548110612c0057fe5b9060005260206000200154905092915050565b60008082846000018054905011612c75576040517f08c379a00000000000000000000000000000000000000000000000000000000081526004018080602001828103825260228152602001806139426022913960400191505060405180910390fd5b6000846000018481548110612c8657fe5b906000526020600020906002020190508060000154816001015492509250509250929050565b60008084600101600085815260200190815260200160002054905060008114158390612d73576040517f08c379a00000000000000000000000000000000000000000000000000000000081526004018080602001828103825283818151815260200191508051906020019080838360005b83811015612d38578082015181840152602081019050612d1d565b50505050905090810190601f168015612d655780820380516001836020036101000a031916815260200191505b509250505060405180910390fd5b50846000016001820381548110612d8657fe5b9060005260206000209060020201600101549150509392505050565b600081600001805490509050919050565b6000612dd48473ffffffffffffffffffffffffffffffffffffffff166133ca565b612de15760019050612fc4565b6000612f4b63150b7a0260e01b612df6612394565b888787604051602401808573ffffffffffffffffffffffffffffffffffffffff1681526020018473ffffffffffffffffffffffffffffffffffffffff16815260200183815260200180602001828103825283818151815260200191508051906020019080838360005b83811015612e7a578082015181840152602081019050612e5f565b50505050905090810190601f168015612ea75780820380516001836020036101000a031916815260200191505b5095505050505050604051602081830303815290604052907bffffffffffffffffffffffffffffffffffffffffffffffffffffffff19166020820180517bffffffffffffffffffffffffffffffffffffffffffffffffffffffff838183161783525050505060405180606001604052806032815260200161380f603291398773ffffffffffffffffffffffffffffffffffffffff166133dd9092919063ffffffff16565b90506000818060200190516020811015612f6457600080fd5b8101908080519060200190929190505050905063150b7a0260e01b7bffffffffffffffffffffffffffffffffffffffffffffffffffffffff1916817bffffffffffffffffffffffffffffffffffffffffffffffffffffffff191614925050505b949350505050565b600080836001016000848152602001908152602001600020541415905092915050565b600080836001016000848152602001908152602001600020549050600081146130cb576000600182039050600060018660000180549050039050600086600001828154811061303a57fe5b906000526020600020015490508087600001848154811061305757fe5b906000526020600020018190555060018301876001016000838152602001908152602001600020819055508660000180548061308f57fe5b600190038181906000526020600020016000905590558660010160008781526020019081526020016000206000905560019450505050506130d1565b60009150505b92915050565b600080846001016000858152602001908152602001600020549050600081141561317e578460000160405180604001604052808681526020018581525090806001815401808255809150506001900390600052602060002090600202016000909190919091506000820151816000015560208201518160010155505084600001805490508560010160008681526020019081526020016000208190555060019150506131ac565b8285600001600183038154811061319157fe5b90600052602060002090600202016001018190555060009150505b9392505050565b600080836001016000848152602001908152602001600020541415905092915050565b600073ffffffffffffffffffffffffffffffffffffffff168273ffffffffffffffffffffffffffffffffffffffff161415613279576040517f08c379a00000000000000000000000000000000000000000000000000000000081526004018080602001828103825260208152602001807f4552433732313a206d696e7420746f20746865207a65726f206164647265737381525060200191505060405180910390fd5b61328281612377565b156132f5576040517f08c379a000000000000000000000000000000000000000000000000000000000815260040180806020018281038252601c8152602001807f4552433732313a20746f6b656e20616c7265616479206d696e7465640000000081525060200191505060405180910390fd5b61330160008383612a5b565b61335281600160008573ffffffffffffffffffffffffffffffffffffffff1673ffffffffffffffffffffffffffffffffffffffff1681526020019081526020016000206127c590919063ffffffff16565b5061336981836002612a7a9092919063ffffffff16565b50808273ffffffffffffffffffffffffffffffffffffffff16600073ffffffffffffffffffffffffffffffffffffffff167fddf252ad1be2c89b69c2b068fc378daa952ba7f163c4a11628f55a4df523b3ef60405160405180910390a45050565b600080823b905060008111915050919050565b60606133ec84846000856133f5565b90509392505050565b606082471015613450576040517f08c379a00000000000000000000000000000000000000000000000000000000081526004018080602001828103825260268152602001806138656026913960400191505060405180910390fd5b613459856133ca565b6134cb576040517f08c379a000000000000000000000000000000000000000000000000000000000815260040180806020018281038252601d8152602001807f416464726573733a2063616c6c20746f206e6f6e2d636f6e747261637400000081525060200191505060405180910390fd5b6000808673ffffffffffffffffffffffffffffffffffffffff1685876040518082805190602001908083835b6020831061351a57805182526020820191506020810190506020830392506134f7565b6001836020036101000a03801982511681845116808217855250505050505090500191505060006040518083038185875af1925050503d806000811461357c576040519150601f19603f3d011682016040523d82523d6000602084013e613581565b606091505b509150915061359182828661359d565b92505050949350505050565b606083156135ad57829050613662565b6000835111156135c05782518084602001fd5b816040517f08c379a00000000000000000000000000000000000000000000000000000000081526004018080602001828103825283818151815260200191508051906020019080838360005b8381101561362757808201518184015260208101905061360c565b50505050905090810190601f1680156136545780820380516001836020036101000a031916815260200191505b509250505060405180910390fd5b9392505050565b6040518060c0016040528060608152602001600073ffffffffffffffffffffffffffffffffffffffff1681526020016000815260200160001515815260200160008152602001606081525090565b828054600181600116156101000203166002900490600052602060002090601f0160209004810192826136ed5760008555613734565b82601f1061370657805160ff1916838001178555613734565b82800160010185558215613734579182015b82811115613733578251825591602001919060010190613718565b5b50905061374191906137cf565b5090565b8280548282559060005260206000209081019282156137be579160200282015b828111156137bd5782518260006101000a81548173ffffffffffffffffffffffffffffffffffffffff021916908373ffffffffffffffffffffffffffffffffffffffff16021790555091602001919060010190613765565b5b5090506137cb91906137cf565b5090565b5b808211156137e85760008160009055506001016137d0565b509056fe456e756d657261626c655365743a20696e646578206f7574206f6620626f756e64734552433732313a207472616e7366657220746f206e6f6e20455243373231526563656976657220696d706c656d656e7465724552433732313a207472616e7366657220746f20746865207a65726f2061646472657373416464726573733a20696e73756666696369656e742062616c616e636520666f722063616c6c4552433732313a206f70657261746f7220717565727920666f72206e6f6e6578697374656e7420746f6b656e4552433732313a20617070726f76652063616c6c6572206973206e6f74206f776e6572206e6f7220617070726f76656420666f7220616c6c4552433732313a2062616c616e636520717565727920666f7220746865207a65726f20616464726573734552433732313a206f776e657220717565727920666f72206e6f6e6578697374656e7420746f6b656e456e756d657261626c654d61703a20696e646578206f7574206f6620626f756e64734552433732313a20617070726f76656420717565727920666f72206e6f6e6578697374656e7420746f6b656e4552433732313a207472616e73666572206f6620746f6b656e2074686174206973206e6f74206f776e4552433732314d657461646174613a2055524920717565727920666f72206e6f6e6578697374656e7420746f6b656e4552433732313a20617070726f76616c20746f2063757272656e74206f776e65724552433732313a207472616e736665722063616c6c6572206973206e6f74206f776e6572206e6f7220617070726f766564a26469706673582212203a0491374c9b62bbc7561c9106e578e35840790e85e88eeed394838ebafac0ab64736f6c63430007060033",
  "linkReferences": {},
  "deployedLinkReferences": {}
}